:020000040800F2
:100000006009002081020008632E0008912D00087D
:10001000612E0008AD1D00080D3200080000000030
:10002000000000000000000000000000672E000833
:10003000AF1D000800000000652E0008692E0008B2
:100040009B0200089B0200089B0200089B0200081C
:100050009B0200089B0200089B0200089B0200080C
:100060009B0200089B0200089B0200089B020008FC
:100070009B0200089B0200089B0200089B020008EC
:100080009B0200089B0200089B0200089B020008DC
:100090009B0200089B0200089B0200089B020008CC
:1000A0009B0200089B0200089B0200089B020008BC
:1000B0009B0200089B0200089B0200089B020008AC
:1000C0009B0200089B0200089B0200089B0200089C
:1000D0009B0200089B020008013200089B020008F6
:1000E0009B0200089B0200089B0200089B0200087C
:1000F0009B0200089B0200089B0200089B0200086C
:100100009B0200089B0200089B0200089B0200085B
:100110009B0200089B0200089B0200089B0200084B
:100120009B0200089B0200089B0200089B0200083B
:100130009B02000800000000000000009B02000875
:100140009B0200089B0200089B0200089B0200081B
:100150009B0200089B0200089B0200089B0200080B
:100160009B0200089B0200089B0200089B020008FB
:100170009B0200089B0200089B0200080000000090
:10018000000000009B0200080000000000000000CA
:100190009B02000800000000000000009B02000815
:1001A0000000000000000000000000009B020008AA
:1001B0009B0200089B0200089B0200089B020008AB
:1001C0009B02000800F002F800F04AF80AA090E84C
:1001D000000C82448344AAF10107DA4501D100F002
:1001E0003FF8AFF2090EBAE80F0013F0010F18BF85
:1001F000FB1A43F0010318475843000078430000FE
:10020000103A24BF78C878C1FAD8520724BF30C842
:1002100030C144BF04680C60704700000023002414
:1002200000250026103A28BF78C1FBD8520728BF06
:1002300030C148BF0B6070471FB504F082F800F072
:10024000F3FC04000020002103F064FA401C60600D
:100250000020002103F048FAE0601FBD10B510BD7A
:1002600000F024FF1146FFF7E7FF03F013FA01F057
:1002700075F903B4FFF7F2FF03BC01F0CDF90000FC
:100280000948804709480047FEE7FEE7FEE7FEE72A
:10029000FEE7FEE7FEE7FEE7FEE7FEE70448054966
:1002A000054A064B70470000092F0008C5010008E9
:1002B0006003002060090020600500206005002028
:1002C00053EA020C00F069802DE9F04B4FF0000674
:1002D000002B1FBFB3FA83F503FA05F424FA05F6E1
:1002E0005E4012BF1643B2FA82F502FA05F4C5F178
:1002F00020051EBF22FA05FC44EA0C04203556EA0C
:10030000044C4FEA144418BF641C4FF000084FF02F
:100310000009904271EB030C39D3002919BFB1FADF
:1003200081F701FA07F6B0FA80F700FA07F6C7F18D
:1003300020071EBF20FA07FC46EA0C062037B6FB52
:10034000F4FCA7EB0507103F07F01F0BCBF12006CD
:100350000CFA0BFB2CFA06F644BFB3460026202FFE
:10036000A4BF5E464FF0000B5BEA060C08BF4FF0DF
:10037000010B19EB0B09ABFB027C48EB0608C01B19
:1003800006FB02CC0BFB03CC71EB0C01C1E70B4667
:10039000024641464846BDE8F08B13B54FF00000D9
:1003A0004FF00001AFF30080BDE81C407047000033
:1003B0000FB400B58DB010A9099000910B904FF0CB
:1003C000FF300A9000200C900648784406900648BA
:1003D00078446A4607900F9909A800F0F5FB0DB024
:1003E0005DF814FB1B080000330800002DE9FF5FD7
:1003F0001D464FF0FF3B91464FF000085F46D5E9A0
:100400000146A96901987F1C8847296A8246884766
:100410000028F6D1BAF1FF3F0CD0002E24F4C064BE
:1004200019DD600614D5BAF12B0F09D0BAF12D0FE2
:100430000ED103E0584604B0BDE8F09F44F4806458
:10044000A96901987F1C8847761E8246002E02DD2E
:10045000BAF1300F03D0B9F1000F26D032E0A9690C
:10046000761E01987F1C44F400748847002E824653
:1004700005DDBAF1780F06D0BAF1580F03D0B9F103
:10048000000F10D01EE0B9F1000F02D0B9F1100F2B
:1004900018D1A969761E01987F1C24F4007488473E
:1004A0008246102002E0082000E00A20814609E090
:1004B000A96908FB0908761E01987F1C44F40074A2
:1004C00088478246002E05DD4946504600F0EBF88D
:1004D0000028EDDAE96901988847A00502D46FF099
:1004E0000100A8E7E00725D1600613D5600502D515
:1004F000C8F1000000E0404629680A1D2A6009682A
:10050000220501D5087015E0220701D5088011E009
:1005100008600FE02868011D29600068210502D5E8
:1005200080F8008006E0210702D5A0F8008001E0F5
:10053000C0F8008038467EE72DE9FF5F4FF00008E5
:100540009946144646469169D2E901A7DDF838B0CC
:1005500001988847054659EA0B0005D009E0A169D2
:100560000198761C88470546216A28468847002856
:10057000F5D1681C03D05FEACA7005D015E04FF0D2
:10058000FF3004B0BDE8F09F2068011D2160D0F865
:1005900000800AE05FEACA7001D108F8015BA16936
:1005A000761C01987F1E88470546002F1ADD681CBF
:1005B00018D0B9F1000F0DD0E81705EBD06042114B
:1005C00020F01F0059F822102A1A01209040014201
:1005D000E0D107E0BBF1000FDCD12846216A884753
:1005E0000028D7D0E16901988847BBF1000F07D1F7
:1005F000002E05DD5FEACA7002D1002188F80010E4
:10060000A068B84203DDBBF1000F03D017B16FF053
:100610000100B6E73046B4E730B505460B462A463A
:1006200013F8014B12F8010B08B1A042F8D01CB12D
:10063000002802D06D1CF1E7284630BD4FF00002C3
:1006400000B5134694469646203922BFA0E80C50C8
:10065000A0E80C50B1F12001BFF4F7AF090728BFA3
:10066000A0E80C5048BF0CC05DF804EB890028BF1F
:1006700040F8042B08BF704748BF20F8022B11F048
:10068000804F18BF00F8012B7047704770477047C4
:1006900010B500F0CDFA006810BD10B5044600F0AA
:1006A000C7FA046010BD3A2800D2303820F020028A
:1006B000412A01D3A2F13700884201D34FF0FF3025
:1006C000704700002DE9FF4F06468BB00878FF28E1
:1006D00006D0491C2D2805D000244FF0000908E061
:1006E00000200CE00124F8E709EB8903491C00EB2A
:1006F00043090878FF28F7D114B1C9F100008146F9
:10070000107800252C46AA4629462D2801D02B28F2
:1007100004D1521C2D2813D0002082468B4610781D
:10072000FF280FD04FF0000C0A21521CA5FB0178C6
:1007300004FB018105FB0C11C5194BEB0104EEE72D
:100740000120EAE7002108464FF00000BAF1000F4F
:1007500002D000EB80004008C0F38157012F01DD7B
:100760004FF0FF370E9955EA040009EB01080BD052
:100770004FF0020918F5FA7F16DA4FEACA70002F17
:10078000706008DD012007E04FEACA70C6E900B0DA
:100790000FB0BDE8F08F0020306000F049FAC0F8DB
:1007A00000901821084616E0B8F5FA7F18DD002FF2
:1007B00002DAF748784401E0F6487844D0E90010BE
:1007C000C6E9001040EACA70706000F031FAC0F863
:1007D0000090142108460FB0BDE8F04F03F0BBBDF8
:1007E000002108464FF00000B8F10001099002DA3C
:1007F000C7F1000200E03A4601DAC8F1000106A89C
:1008000000F0DEFB06AB93E8070003AB83E80700CC
:1008100044F23E005BEA04010090584604D144F2E1
:100820001E012C465D460091210C0904014306D1AE
:100830000099240444EA15442D041039009104F071
:100840007F41014306D10099240244EA15642D0238
:100850000839009104F07041014306D10099240148
:1008600044EA15742D01091F009104F04041014331
:1008700006D10099A40044EA9574AD00891E009148
:1008800004F00041084304D100986D196441401EF2
:1008900000904FF001033A466846B8F1000FCDE9E9
:1008A000014503A902DD01F04AF901E001F01DF95B
:1008B000BAF1000F04460D4601D084F00044002137
:1008C00008464FF00000099940F2FF77484010F0C9
:1008D0000C0F07D124F00040284303D0C4F30A5082
:1008E000B84212D100F0A4F9C0F80090C4F30A5045
:1008F000B8420AD1A8487844D0E90010C6E90010EF
:1009000004F000410843706042E7C6E900543FE745
:100910002DE9FF4F1F464FF0000A4FF0FF384546C4
:1009200091B0D7E90146CDF83CA000F07DF9C06850
:100930000168405C1090B96912986D1C8847396A4B
:10094000814688470028F6D1B9F1FF3F0AD0002E32
:1009500024F4D06411DDB9F12B0F08D0B9F12D0FBB
:100960000BD102E0404615B013E744F48064B96946
:1009700012986D1C8847761E8146600504A901D532
:100980002D2000E02B20002E01F1010B0DF130088D
:100990008DF810003FDDB9F1690F08D0B9F1490FAA
:1009A00005D0B9F16E0F02D0B9F14E0F1CD13B4604
:1009B00001A8009580E85002DDE912126FF00200F4
:1009C00003F030FDC11CCED10EE0B96912986D1C48
:1009D000884781461398761E44F4007405600F988A
:1009E000401C002E0F9016DDB9F1300FEDD0B9F19B
:1009F000780F02D0B9F1580F0DD10F9801280AD104
:100A00003B46CDE90054DDE91212001F029603F0C7
:100A100007FDC11CA7D1109989453ED144F080043F
:100A200006E01399681CAAF1010A44F400740860F6
:100A3000B9696D1C1298761E884730288146F0D01F
:100A40002BE01099894505D1200603D4761E44F089
:100A5000800418E0484602F096FD08B3761E0DF1BA
:100A600023018B4544F4007408D2A9F130000BF83F
:100A7000010B200607D5AAF1010003E0200602D4ED
:100A80000AF101008246A00502D51399681C08608E
:100A9000B96912986D1C88478146002ED1DC53E05D
:100AA000002E51DDB9F1650F02D0B9F1450F4BD1E0
:100AB000A00549D5B9696D1C1298761E24F44074BE
:100AC0008847002E81460CDD2B2804D0B9F12D0F6C
:100AD00007D144F48074B96912986D1C8847761E5A
:100AE0008146E00501D52D2100E02B2108F8011BEE
:100AF000CDF8008021E0761E0DF13901884544F4DF
:100B000000740CD2A9F1300010F0FF0088F800004A
:100B100002D10099884509D908F1010806E0E005ED
:100B200001D51E4801E042F20F708246B969129861
:100B30006D1C8847814613980560002E04DD4846E9
:100B400002F021FD0028D6D1F96912988847FF20CC
:100B500053468BF8000088F8000000200A900B90A4
:100B600004AA0CA90AA8FFF7ADFDA00502D46FF0F6
:100B70000100F8E614F0240F12D0E0071CD1386809
:100B8000DDE90A12031D3B600068C0E9001213E0B2
:100B9000C03D0000B23D0000763C0000F1D8FFFFF0
:100BA0000AA9684602F0DCFCE00705D13868009A23
:100BB000011D3960006802602846D4E602681144CD
:100BC0001378016018467047D16005497944516136
:100BD00004497944116200211161114600F036B8D0
:100BE000EDFFFFFF63000000426842B1016811F8A9
:100BF000013B23B1521EC0E9001218467047012183
:100C0000C160881E704742685AB1C368016843B921
:100C100083688B4205D0491E521CC0E90012002097
:100C200070474FF0FF3070470048704720030020A6
:100C3000004870470003002010B5044600F05CFA3D
:100C40000068005D00F0010010BD00002DE9F34FC9
:100C50004FF0000A0C4656468DB001200C9001F171
:100C60000C000B9062690B9801219047051E2DD056
:100C7000252D2CD0216A8847C0B162690B980121CB
:100C80009047216A88470028F7D16269411E0B9876
:100C9000904700E0761CA1690D988847216A884733
:100CA0000028F7D1E1690D988847DBE7A1690D9825
:100CB0008847A842074601D1761CD3E7E1690D9821
:100CC00088477F1C02D1BAF1000F6FD06BE16269D7
:100CD0000B9800273D46394690472A2804D162697F
:100CE0000B98012190470125DFF8D08262690B98AB
:100CF00001219047A0F130010A290AD24745E5DCDD
:100D000007EB870100EB4107303FDFD445F01005CA
:100D1000ECE7E90601D46FF000476C280AD04C28B4
:100D200014D0682815D06A280DD074281CD07A28D1
:100D30001AD01DE062690B98012190476C2802D0FF
:100D400045F0040514E045F002050DE045F02005EE
:100D50000AE062690B9801219047682802D045F0AB
:100D6000080505E045F4006562690B98012190478C
:100D7000C4E9015765283DD019DC58287AD00CDC2D
:100D8000452837D004DC252826D041289ED131E0E3
:100D900046282FD0472899D12CE05B2877D06128AE
:100DA00028D063287CD0642823D15AE0F6E06F284D
:100DB00048D008DC66281DD067281BD0692821D0C0
:100DC0006E2816D127E0702845D0732868D0752882
:100DD00047D078280DD14DE0A1690D988847252886
:100DE00005463FF469AFE1690D9888476D1C3FF4F3
:100DF0006AAFD8E00D9923466A466FF0010003F010
:100E00000DFBC5E045F0400023464FF00002606056
:100E1000A80736D43EE0E8077FF447AF2068011DFD
:100E200021600068290501D506701BE7290701D557
:100E3000068017E7A90703D5F117C0E9006111E79C
:100E400006600FE745F0400023464FF0080260605F
:100E5000A80716D41EE040F60E0125EA01006060E6
:100E600016E045F0400023464FF00A026060A807F4
:100E700007D40FE045F040006060A80708D523467E
:100E800010220D996FF00100AFF3008080E007E0C1
:100E9000102223460D996FF00100FFF7A7FA77E0C3
:100EA0004FF0000963284F46C8464B46CB4602D058
:100EB0005B2806D038E0E80601D40120A0600127B5
:100EC00032E06269D4F80CB00B98012190475E289B
:100ED00007D14FF0010949466269D4F80CB00B986C
:100EE0009047216939B900210A4603AB43F8212014
:100EF000491C0829FADBD8B3216949B308F1010874
:100F000062690B98012190475D28F4D1B9F1000F77
:100F100009D0002003A951F82020D24341F8202015
:100F2000401C0828F7DB03AB2069002820794FEA32
:100F300040701ED05B462246CDF80080CDE9019777
:100F40000D9900286FF0010020DAAFF300801FE058
:100F5000C11703AA00EBD1614B1121F01F0102EB75
:100F60008302411A13680120884003431360C7E7D6
:100F700019E00D99224600286FF00100009702DA6F
:100F8000AFF3008004E0FFF7D7FA01E0AFF3008091
:100F900000280ADA401C06D10C9820B14FF0FF302F
:100FA0000FB0BDE8F08F5046FAE7E90701D10AF12A
:100FB000010A064400200C9054E60000CCCCCC0C76
:100FC0002DE9F047814616468AB0354878440DC869
:100FD0008DE80D0032487844801C03AC0DC884E8CD
:100FE0000D0041F69B300844372190FBF1F290FB55
:100FF000F1F5A5F1800501FB12041B3C02D564420A
:10100000012000E00020DFF898A080460027FA4485
:10101000AAF1BE0A0EE0E0070AD03246684607EBA6
:10102000470101230AEB810100F074FD8DE8070000
:1010300064107F1C002CEED1194F7F44AE3F19E0A5
:10104000E80715D007EB04100DF1180A90E80E0020
:101050008AE80E00C068F04201D198190890324623
:10106000012306A903A800F055FD03AB83E80700A0
:101070006D10641C002DE3D14FF001033246694628
:10108000B8F1000F03A802D000F01AFD01E000F053
:1010900041FDC9E90001C9F808200AB0BDE8F087A0
:1010A0001C35000000487047000300207546FFF71C
:1010B000F9FFAE4605006946534620F00700854615
:1010C00018B020B5FFF7EAF8BDE820404FF0000661
:1010D0004FF000074FF000084FF0000B21F0070120
:1010E000AC46ACE8C009ACE8C009ACE8C009ACE863
:1010F000C0098D467047000010B5FFF795FD001D33
:1011000010BD00BF112600002DE9FF4F1F464FF014
:101110003C0987B04FF00042DDE9141001F10108ED
:10112000DDF858A002EA4050039000200590834665
:10113000054604460490B969461E08988847AAF1F6
:10114000010A0290BAF1000F3BDD02982E2815D05B
:101150001021FFF7A8FA00282EDB4FF0010B0599AC
:10116000014317D0B9F1000F0BDB4A46C11700F05D
:101170003FFA05430C43A9F1040905E0012004905E
:101180000BE008B145F0010501200590049820B955
:10119000361D02E0049800B1361FB969089808F1BD
:1011A00001088847BBF1000FAAF1010A0290C9D0DB
:1011B0000999C1F80080C5E70298702808D0502826
:1011C00006D0F96908988847BBF1000F14D04FE0AA
:1011D000002002900120BBF1000F049009D0B969F2
:1011E000089808F101088847AAF10109B9F1000F30
:1011F00007DCF969089888476FF001000BB0BDE87B
:10120000F08F2B2804D02D280CD14FF0FF30049004
:10121000B969089808F101088847A9F10109B9F1ED
:10122000000FE6DD411CE4D00A21FFF73CFA00285C
:10123000DFDB029908F1010801EB810100EB4100BD
:101240000290B969089888470A21FFF72CFA099A91
:10125000A9F10109B9F1000FC2F8008001DD0028F1
:10126000E7DAF969089888470499029800FB016653
:1012700055EA040004D004F04041090002D006E021
:10128000039898E0A40044EA9574AD00B61E04F0FB
:101290000041080002D16D196441761E159810F0C6
:1012A000240F03D04FF00B095C4803E04FF02809EE
:1012B0006FF07D008246564507DAAAEB06018944A5
:1012C000B9F1410F01DD4FF0410901200021A9F1E1
:1012D000010200F08DF9024628400B4621400843E8
:1012E00001D0012100E00021501E029143F1FF31A5
:1012F00028402140084301D0012000E0002002994D
:10130000834651EA0B014FD0002108464FF0000000
:10131000039900F4400039B100EB80004FF4400124
:1013200000EBD07001EA60008015012802DD4FF06B
:10133000FF3000E013D0401C36D0029860B3BBF100
:10134000000F0CD14A460120002100F051F928403D
:101350002140084301D0012000E00020E0B101203D
:101360004A46002100F044F9034640190A4661410B
:101370002D1A8C4111D3B9F1400F09DD159810F0E9
:10138000240F02D0AAF1340603E0AAF1170600E008
:10139000761C00254FF0004406E05B1E42F1FF3250
:1013A00020EA030521EA0204CAF10100B04206DA8C
:1013B0001B49039808430190002000900EE0039A17
:1013C000C4F3D321E80A0A43164940EA44500A43C9
:1013D0003146CDE90002684602F0CBF8159810F0CE
:1013E000240F0BD01598C00715D13868DDE900121D
:1013F000031D3B600068C0E900120CE002A86946CA
:1014000002F0AEF81598C00705D13868029A011DA0
:101410003960006802604046F0E6000002FCFFFF11
:101420000000F07F0000F03F2DE9FF4F92461D467F
:1014300085B04FF00041DDE9124BDDE914727F1EEB
:1014400001EA4B50414940F0FF4940EA01080021C0
:1014500022F020004928049102D04E2828D04CE0E8
:101460003BA0012607C88DE80700A9690698641CFF
:1014700088477F1E014606D41DF8060018B121F0EA
:10148000200181420BD0E96906988847032E34D0A9
:10149000082E32D06FF0010009B0BDE8F08F761C45
:1014A000032E01D0082EE0D1601CCAF80000DCE752
:1014B000A9690698641C88477F1E2AD420F0200062
:1014C000412826D1A9690698641C88477F1E20D42C
:1014D00020F020004E281CD1A9690698641C88477A
:1014E0007F1E48F4002849F48009CAF8004001D45E
:1014F000282806D0E969069888475FEACB7012D0A1
:1015000022E0A9690698641C88477F1E01D4002840
:1015100003DAE96906988847BCE72928F1D1641CF9
:10152000CAF80040E9E71BF0240F07D028680499A7
:10153000031D2B600068C0E9001805E02868021D43
:101540002A600068C0F800902046A5E70000F07F00
:10155000494E46494E4954590000000010B5044612
:10156000AFF300802046BDE81040FEF782BE0000C9
:101570004FF0013C50F8042B51F8043B9A4221D122
:10158000A2EB0C03934313EACC1317D150F8042BAE
:1015900051F8043B9A4215D1A2EB0C03934313EA92
:1015A000CC130BD150F8042B51F8043B9A4209D1CB
:1015B000A2EB0C03934313EACC13DBD04FF00000F3
:1015C000704700BFD01A01BAB1FA81F101F01801D9
:1015D00022FA01F0CB40C1F12001DBB2C0B2C01A47
:1015E0002CFA01F3D11A914311EAC311E6D17047E5
:1015F000B2F120030AD5C2F1200301FA02F120FA68
:1016000003F300FA02F041EA0301704700FA03F124
:101610004FF000007047000001491820ABBEFEE704
:1016200026000200704720F07F4C80EA030023F080
:101630007F47ACEB070303F57C5300F0004003F158
:10164000FF032DE980494FEA154B09B44FEA1443D3
:1016500025EA0B4E24EA03480FF2042606EB132773
:1016600049083E785FEA320203FB0667C7F50007C8
:1016700007FB06F64FEA54374FEAD64606F1020654
:1016800007FB066CCCF1005C4FEA1C472CEA074CC8
:1016900007FB06F40CFB06F504EB15464FEA96161D
:1016A00034BF00204FF000404FEAD13706FB07FC63
:1016B0004FEA1C4C0CFB0BF7D21B03FB0CF761EB46
:1016C00007010CFB0EF7B0EB074072EB17420CFB67
:1016D00008F734BFA2EB0742B2EB074261EB1741B8
:1016E0004FEA0C444FEA910706FB07FC4FEA1C4CFB
:1016F0000CFB0BF7B0EBC74072EB573203FB0CF758
:1017000034BFA2EBC742B2EBC74261EB57310CFBCF
:101710000EF7B0EBC70072EB57720CFB08F734BF43
:10172000A2EBC702B2EBC70261EB5771039F4FEA0E
:10173000816141EA921104EBCC044FEAD1374FEAC0
:10174000826206FB07FC42EA90124FEA80604FEA91
:101750001C4C0CFB0BF7D21B03FB0CF761EB0701D6
:101760000CFB0EF7B0EB074072EB17420CFB08F7CF
:1017700034BFA2EB0742B2EB074261EB17414FEADD
:101780008C554FEA910704EB9C2406FB07FC4FEABB
:101790001C4C0CFB0BF7B0EBC74072EB573203FB52
:1017A0000CF734BFA2EBC742B2EBC74261EB573133
:1017B0000CFB0EF7B0EBC70072EB57720CFB08F78F
:1017C00034BFA2EBC702B2EBC70261EB577115EB56
:1017D0004C254FEA816141EA92114FEA82624FEA59
:1017E000D13742EA901206FB07FC44F100044FEAAD
:1017F00080604FEA1C4C0CFB0BF7D21B03FB0CF771
:1018000061EB07010CFB0EF7B0EB074072EB1742E0
:101810000CFB08F734BFA2EB0742B2EB074261EBC7
:10182000174115EB1C154FEA813141EA92414FEA0D
:10183000823242EA90424FEA80304FEA0C7644F11D
:10184000000448EA03434EEA0B484FF0000EB2EBA7
:10185000080C71EB030724BF624639464EEB0E0EAF
:101860004FF0000B0018524149414BEB0B0BB2EB10
:10187000080C71EB03077BF1000B24BF624639466D
:101880004EEB0E0E4FF0000B0018524149414BEB4E
:101890000B0BB2EB080C71EB03077BF1000B24BFC1
:1018A000624639464EEB0E0E51EA020718BF46F06B
:1018B000010616EB0E7655F1000254F1000103D536
:1018C000BDE88901BDE80088BDE88901BDE80048A0
:1018D000B619524141EB0101A3F101037047808029
:1018E0007F7E7D7C7B7A797877767675747372717A
:1018F00071706F6E6E6D6C6C6B6A6A696868676632
:1019000066656464636362616160605F5F5E5E5DC3
:101910005D5C5C5B5B5A5A59595858575756565537
:1019200055555454535352525251515050504F4F99
:101930004F4E4E4D4D4D4C4C4C4B4B4B4A4A4A49E9
:10194000494948484847474747464646454545442C
:1019500044444443434343424242424141410000E4
:1019600046EA0646A3F570534FEA164646EA425643
:101970004FEAD22242EA415210B54FEAD121A3F1F7
:10198000010300F02FF820F0004000F1020C00F0FD
:10199000004701EB00501146BCF5006F40EA07001C
:1019A00000D210BDBAF1000F0AD01CB503B44FF03D
:1019B00004004FF004014FF000000FBCBDE81040E0
:1019C0004FF00001BBF1010FB9BF04484FF0FF31E8
:1019D0000348002140EA070010BD00BFFFFFEF7F72
:1019E0000000F07F002B9C4630D477002BD01CB534
:1019F0004FEA370703B44FF010004FF01001BAF16F
:101A0000000F06D0BCF1000FDCBF40F0080040F032
:101A100008014FF000000FBCBDE810400BF1010BB6
:101A2000BBF1010F08BF5FEA170722BF12F10102E5
:101A300011F101014FF0004143F1000300F00040BB
:101A400043EA00007047F9D35708D0E746EA064654
:101A500013F1400F4FEA16461FDD13F1200FDFBFD1
:101A600016430A46002120335B42BED0C3F1200753
:101A700046EA064602FA07F74FEA164646EA07061E
:101A8000C3F1200722FA03F201FA07F721FA03F162
:101A90004FF0000342EA0702A7E746EA020646EAD9
:101AA00006464FEA164646EA0106BCBF46EA064627
:101AB000360C4FF000034FF000024FF0000194E7A6
:101AC0002DE9804C9A46934670B491E8380007C8D7
:101AD00031EA400C48BF34EA430C03D5FFF7A3FDBD
:101AE000FFF780FFF0BCBDE8008C2DE9804C9A46E2
:101AF000934670B491E8380007C831EA400C48BFFB
:101B000034EA430C03D5FFF78EFDFFF729FFF0BC45
:101B1000BDE8008C2DE9804C9A46934670B491E85C
:101B2000380007C810F0804F08BF13F0804F03D172
:101B300000F01AF8FFF756FFF0BCBDE8008C2DE965
:101B4000804C9A46934670B491E8380007C810F06C
:101B5000804F08BF13F0804F03D100F005F8FFF766
:101B6000FFFEF0BCBDE8008C20F07F4780EA030058
:101B700023F07F4C07EB0C03A3F57C5300F00040EF
:101B8000A3F1FE0392F0000F00F0B38095F0000F78
:101B900000F077802DE901494FEA11404FEA1446E1
:101BA00021EA004800FB06FC24EA064708FB06F68B
:101BB00007FB08F800FB07F718EB06484CEB164C40
:101BC0004FEA124B18EB07484FEA15464CEB17400B
:101BD00022EA0B4E0BFB06FC25EA06470EFB06F637
:101BE00007FB0EFE0BFB07F71EEB064E4CEB164CED
:101BF0004FF000061EEB074E4CEB174B18EB0B0893
:101C000040F1000018EB0E0B58EB000840F100000B
:101C10008F1A4FF000013CBFC943661B14BFB5EBE0
:101C2000040C00213CBFC943F61B4FEA17444EEA9F
:101C30008E0E27EA04454FEA1C4704FB07622CEA94
:101C4000074C05FB07F70CFB05F604FB0CFC16EB39
:101C5000074642EB174216EB0C4642EB1C421BEBCD
:101C6000060658EB0202414146EA9E0601D5BDE850
:101C70000189B619524141EB0101A3F10103BDE80D
:101C800001894FEA14454FEA114724EA054621EA43
:101C9000074C05FB07F406FB07F70CFB06F105FBF9
:101CA0000CFC11EB074144EB17444FEA124711EBD0
:101CB0000C4144EB1C4422EA074C05FB07F206FBEF
:101CC00007F70CFB06F605FB0CFC16EB074642EB90
:101CD000174216EB0C4642EB1C456A1854F1000102
:101CE00048BF7047B619524141EB0101A3F101030E
:101CF000704795F0000F37D04FEA11424FEA144772
:101D000021EA024624EA074C02FB07F106FB07F72B
:101D10000CFB06F402FB0CFC14EB074441EB1741EF
:101D20004FEA154714EB0C4441EB1C4125EA074CE4
:101D300002FB07F506FB07F70CFB06F602FB0CFCA3
:101D400016EB074645EB174516EB0C4645EB1C42D8
:101D5000121951F1000148BF7047B619524141EBC9
:101D60000101A3F1010370474FEA14454FEA1147FF
:101D700024EA054621EA074C05FB07F106FB07F7B5
:101D80000CFB06F24FF0000605FB0CFC12EB0742C1
:101D900041EB174112EB0C4251EB1C4148BF70471D
:101DA000921841EB0101A3F101037047FEE7704770
:101DB00072B6FEE710B500F0F7F90B49C1F804025E
:101DC000B1F80002B0F5FF7F07D291F802220A5461
:101DD000B1F80002401CA1F80002BDE81040012249
:101DE0000249034800F062BFB0000020B2020020A8
:101DF00068000020044900200122A1F8000201F23D
:101E00000221024800F052BFB0000020680000200C
:101E100070B58EB000F0C8F9354CD4F80412401AF1
:101E200032285CD9B4F80002002858D031A12046ED
:101E3000FEF7F2FB05004AD004F502704821064681
:101E4000FEF7FCFB04F51370011F821FA0F11003C5
:101E5000CDE90C101438CDE90A32011F821FC31FCF
:101E6000CDE908101039CDE906320838CDE9041063
:101E70000A1F2438811E03920091213BCDE9010302
:101E8000C31E32461D492846FEF792FA94F82012E6
:101E90002D2009B984F8200294F8301209B984F889
:101EA000300294F8441209B984F8440294F83C12C0
:101EB00009B984F83C0294ED840A01F06BFB84EDCF
:101EC000860B94ED890A01F065FB84ED8A0B4FF4D3
:101ED00000710748FEF7B2FB0020A4F800020EB024
:101EE0000122BDE870400649064800F0DFBE000050
:101EF000B00000202447504747412C00044500080B
:101F0000B2020020680000202DE9F0410446876DF0
:101F100000F04AF9064694F835000025022806D05C
:101F20008020606584F834500120BDE8F08120688D
:101F3000016821F0160101602068416921F08001EB
:101F40004161206C08B9A06C20B12068016821F0C3
:101F5000080101602068016821F0010101600CE0C6
:101F600000F022F9801B052807D920206065032096
:101F700084F8350084F83450D7E720680068C0073B
:101F8000EED194F85C103F208840B860012084F8BE
:101F9000350084F834500020C7E790F83510022946
:101FA00003D08021416501207047052180F835105C
:101FB0000068016821F00101016000207047000005
:101FC0002DE9F84FDFF8ACA1002201240AF1040B3F
:101FD00003254FF00F090BF1040E00BF0B6804FA44
:101FE00002F63340B3426ED10F7907F00307012F99
:101FF00001D0022F16D187684FEA420805FA08FC83
:1020000027EA0C07D1F80CC00CFA08FC4CEA070CC4
:10201000C0F808C04768B7430E79C6F3001696406B
:102020003E4346600E79F643B6070AD0C6684FEACB
:10203000420C05FA0CF7BE438F6807FA0CF73743DA
:10204000C7600E7906F00306022E10D1D60800EB09
:102050008608D8F8206057074FEAD76C09FA0CF7C2
:10206000BE430F6907FA0CF73743C8F820700668BB
:102070004FEA420C05FA0CF7BE430F7907F003074D
:1020800007FA0CF7374307604E6816F4403F6BD0F1
:10209000394E376847F480473760366822F00307C7
:1020A00006F480460096354E07EB060CDCF808680F
:1020B00097074FEA177809FA08F7BE43304FB8423E
:1020C00002D100271FE04FE02E4FB84201D1012777
:1020D00019E02D4FB84201D1022714E02B4FB8422E
:1020E00001D103270FE02A4FB84201D104270AE0AB
:1020F000284FB84201D1052705E0274FB84201D14A
:10210000062700E0072707FA08F73743CCF80878D6
:10211000DAF800605746D1F804C09E435FEACC3C31
:1021200000D51E433E60DBF800605F46D1F804C076
:102130009E435FEA8C3C00D51E433E60DEF80060A3
:102140007746D1F804C09E435FEACC2C00D51E43ED
:102150003E60084F0C373E68D1F804C09E435FEAEA
:102160008C2C00D51E433E60521C102AFFF436AF63
:10217000BDE8F88F003C0140443802400030014087
:10218000000002400004024000080240000C02402F
:102190000010024000140240001802400AB18161A0
:1021A00070470904FBE700000148806870470000A1
:1021B0001400002002488168027811448160704751
:1021C000140000200B4810B5016841F40071016053
:1021D000016841F480610160016841F4807101602F
:1021E000032000F06FF8002000F006F800F024F85B
:1021F000002010BD003C024070B50D4D04464FF468
:102200007A712878B1FBF0F00A490968B1FBF0F067
:1022100000F074FB48B9102C07D200222146501E52
:1022200000F030F800206C6070BD012070BD00002F
:1022300014000020200000200A4808B5016841F47D
:1022400080410160006800F4804000900548001F54
:10225000016841F080510160006800F080500090FA
:1022600008BD000044380240002809DB00F01F02CE
:10227000012191404009800000F1E020C0F80011E8
:1022800070470000F0B40E4B1B680C46C3F30223EA
:10229000C3F10705042D00D90425191D072901D212
:1022A000002300E0DB1E012606FA05F1491E21404D
:1022B00099409E40761E16403143F0BC00F0A7BF07
:1022C0000CED00E0064900F0070208684FF6FF0336
:1022D000184040EA0220034A10430860704700009B
:1022E0000CED00E00000FA052DE9F84317480168FD
:1022F00041F0805101600068154F00F080500126C8
:1023000000903E64FFF750FF05464FF47A78114C79
:1023100005E000BFFFF748FF401B40450DD860684F
:10232000C003F7D57E64FFF73FFF0546464607E04A
:10233000FFF73AFF401BB04202D90320BDE8F88303
:1023400060688003F4D50020F8E7000040380240C0
:1023500000000E42007000402DE9F0470E460500D7
:1023600065D0DFF81481D8F80000F7B200F00F0054
:10237000B04207D288F80070D8F8000000F00F00D3
:10238000B04254D128683D4C810712D5400703D58F
:10239000206840F4E05020602878000703D52068CA
:1023A00040F4604020602068A96820F0F0000843F5
:1023B00020602878C0072DD0304968680839012886
:1023C00012D0022813D0032811D0096889070029E8
:1023D0002DDA216821F0030101432160FFF7E4FEBB
:1023E000814641F2883A0EE009688903EFE70968FF
:1023F0008901ECE7FFF7D8FEA0EB0901514502D9AE
:102400000320BDE8F0872068696800F00C00B0EB9D
:10241000810FEFD1D8F80010404601F00F01B14212
:1024200007D90770006800F00F00B04201D001200A
:10243000E7E72878400705D52068E96820F4E050F0
:10244000084320602878000706D52068296920F411
:10245000604040EAC100206000F038F82168084A76
:10246000C1F30311515CC840064908600648006882
:10247000FFF7C2FE0020C4E7003C024008380240DB
:102480005844000820000020180000200448054996
:1024900000680968044AC1F38221515CC840704752
:1024A000200000200838024068440008044805491C
:1024B00000680968044AC1F34231515CC840704762
:1024C000200000200838024068440008224810B567
:1024D000006810F00C02214815D02149042A11D0BF
:1024E0001D4C241F082A0FD00C2A0CD12268236807
:1024F00002F03F025B0221D52068C0F38810A0FBE8
:10250000010120E0084610BD2268236802F03F0266
:102510005B0205D52068C0F38810A0FB010104E030
:102520002168C1F38811A1FB00010023FDF7C8FE5B
:102530002168C1F30141491C49000AE02168C1F347
:102540008811A1FB00010023FDF7BAFE2168C1F349
:102550000271B0FBF1F010BD083802400024F40015
:1025600040787D012DE9F84F04007DD0DFF878B385
:102570002078ABF10407C007A7F1040550D0DBF8C1
:1025800000105846C1F3810101290FD00168C1F341
:102590008101022902D13968490207D40068C0F3D9
:1025A0008100032809D13868400206D528688003D5
:1025B00036D560680028D8D032E06068B0F5803F3A
:1025C00010D0B0F5A02F286810D020F480302860FB
:1025D000286820F4802028606068A0B1FFF7E4FD3F
:1025E00006460CE0286840F48030F4E740F4802090
:1025F0002860F7E7FFF7D8FD801B642876D82868A5
:102600008003F7D50CE0FFF7CFFD064605E000BFDD
:10261000FFF7CAFD801B6428F0D828688003F7D430
:102620002078DFF8C89280074FF0000A44D5DBF825
:102630000010584611F00C0F0FD00168C1F3810152
:10264000022902D13968490207D50068C0F3810028
:1026500003280AD13868400207D42868800715D5B6
:10266000E068012800D111E03AE1E068B0B1012052
:10267000C9F80000FFF798FD064604E0FFF794FD57
:10268000801B0228BAD828688007F7D528682169F6
:1026900020F0F80040EAC10028600DE0C9F800A071
:1026A000FFF782FD064604E0FFF77EFD801B02284F
:1026B0001CD828688007F7D42078000727D5DFF8D2
:1026C00028828B48616908F16C0881B101210160A1
:1026D000FFF76AFD064604E0FFF766FD801B02284F
:1026E00004D8D8F800008007F6D510E089E0C0F8DB
:1026F00000A0FFF759FD064605E000BFFFF754FDB7
:10270000801B02287DD8D8F800008007F6D42078F6
:10271000400769D574484FF0000838300068C000A1
:102720000BD471483830016841F080510160006875
:102730004FF0010800F0805000906E4E3068C005E8
:1027400011D4306840F480703060FFF72DFD0090A8
:1027500006E000BFFFF728FD0099401A022850D874
:102760003068C005F6D5604EA068683601280FD0E5
:102770000528306810D020F001003060306820F06B
:1027800004003060A068B8B1FFF70EFD00900FE0C4
:10279000306840F00100F4E740F004003060F7E7F3
:1027A000FFF702FD0099411A41F28830814264D856
:1027B00030688007F4D50EE0FFF7F6FC009007E0E4
:1027C000FFF7F2FC0099411A41F28830814254D857
:1027D00030688007F4D4B8F1000F05D04248383093
:1027E000016821F080510160A069A8B3DBF80010F6
:1027F000C1F38101022947D00228C9F860A005D0A1
:1028000000E03AE0FFF7D0FC044639E0FFF7CCFCEB
:10281000064604E0FFF7C8FC801B02282DD8286874
:102820008001F7D4F4E907010843E168324A490816
:1028300002EB0141A26841EA82110843217C40EA8F
:102840000160217D40EA017038600120C9F8600014
:10285000FFF7AAFC044606E044E000BFFFF7A4FC33
:10286000001B022809D828688001F7D53AE000BF8C
:10287000FFF79AFC001B022802D90320BDE8F88F5D
:1028800028688001F4D42DE00128F7D03868E26987
:1028900000F48001914223D1226A00F03F0191426D
:1028A0001ED147F6C071626A0140B1EB821F17D199
:1028B000A26A4FF0FF3300F4403103EB5202B1EB58
:1028C000024F0DD194F82C2000F07061B1EB026F33
:1028D00006D194F8301000F0E040B0EB017F01D059
:1028E0000120CBE70020C9E708380240000047423A
:1028F000800E4742007000400000FFFF10B5401EF0
:10290000B0F1807F01D3012010BD4FF0E024606161
:102910000F21601700F07BFC0020A06107202061E0
:10292000002010BD70477047F8B50168044608687C
:10293000CA684B6910F00F0F4FF0000559D003F033
:10294000010602F49077374365D0C10705D0D10561
:1029500003D5216C41F001012164410705D5D90758
:1029600003D0216C41F002012164810705D5D9070C
:1029700003D0216C41F004012164010707D502F066
:102980002001314303D0216C41F008012164216C06
:1029900000293AD0800604D5900602D5204600F0E2
:1029A000F0FA20684069216CC0F38010090700D458
:1029B00060B3204600F0BEFA20684069400621D589
:1029C0002068143050E8001F21F0400140E8001258
:1029D000002AF5D1A06BA8B16C490165A06BFFF787
:1029E000DCFA002811D0A06B016D01B0BDE8F04009
:1029F000084783060FD593060DD52046BDE8F8405D
:102A000000F0BFBA2046FFF78EFFF8BD2046FFF763
:102A10008AFF2564F8BD266B2023012E79D1C606D6
:102A200077D5D60675D5086848680090486940068D
:102A300040D5A16B086840680004000CEAD0A28D64
:102A40008242E7D9E085C869B0F5807F2DD0206843
:102A50000C3050E8001F21F4807140E80012002A79
:102A6000F5D12068143050E8001F21F0010140E842
:102A70000012002AF5D12068143050E8001F21F020
:102A8000400140E80012002AF5D184F83E30256369
:102A900020680C3050E8001F21F0100140E80012BF
:102AA000002AF5D1A06BFFF72FFAA08DE18D401A17
:102AB00081B229E0A08DE18D401A81B2E08D00281D
:102AC000A8D00029A6D020680C3050E8002F22F4AE
:102AD000907240E80026002EF5D12068143050E8AE
:102AE000002F22F0010240E80026002EF5D184F8E4
:102AF0003E30256320680C3050E8002F22F0100291
:102B000040E80023002BF5D12046FFF70BFFF8BD6E
:102B1000FFE705062BD5150629D594F83D00212899
:102B2000F5D1A068B0F5805F01D12069B0B1206A0D
:102B3000411C2162216800784860E08C401E00043E
:102B4000000CE084E3D12068C16821F08001C160FD
:102B50002068C16841F04001C160D8E7206A008860
:102B6000C0F308004860206A801C2062E5E7400648
:102B7000CDD55006CBD5CA68204622F04002CA60A7
:102B800084F83D3000F003F9C1E70000252F00086C
:102B900070B5040004D094F83D00002510B106E0A3
:102BA000012070BD84F83C50204600F023F824201A
:102BB00084F83D002068C16821F40051C1602046BE
:102BC00000F040FA2068016921F490410161206819
:102BD000416921F02A0141612068C16841F4005136
:102BE000C1602564202084F83D0084F83E00002068
:102BF00070BD0000F0B587B0044614216846FDF7AB
:102C00001DFD274A254F266800232549103A032435
:102C100002252448BE421AD10E6846F400260E60F2
:102C2000096801F400210591116841F0010111606A
:102C30001168029301F001010591CDE900450821D9
:102C4000CDE903416946FFF7BBF907B0F0BD164F68
:102C5000BE42FAD10E6846F400360E60096801F4EF
:102C600000310591116841F0010111601168029372
:102C700001F0010105910C21CDE900150721CDE9F5
:102C800003416946FFF79CF9002211462620FFF711
:102C9000F9FA2620FFF7E8FAD7E70000004C0040D9
:102CA00040380240000002400044004090F83E30AE
:102CB000202B0ED159B152B190F83C30012B08D0E5
:102CC000012380F83C300023036300F041BA012067
:102CD000704702207047FFF76DB800002DE9F843F8
:102CE000044690F83D001F4616460D4620284CD15C
:102CF000C5B1BEB194F83C00012846D0012084F84B
:102D00003C004FF00008C4F84080212084F83D00CA
:102D1000FFF74AFAA6848146E684A068B0F5805F92
:102D200003D004E00120BDE8F883206928B12E46D5
:102D30005FF0000584F83C800EE00026FAE7802171
:102D4000204600F020FAA0B9AEB116F8010B2168B8
:102D50004860E08C401EE084E08C4B464FF000025F
:102D600000970028EBD14FF04001204600F00BFA0D
:102D700030B10320D7E735F8020BC0F30800E6E7CF
:102D8000202084F83D000020CDE70220CBE77047EB
:102D9000FEE7000030B587B014216846FDF74EFC11
:102DA00011480024016841F080010160016801F0D0
:102DB00080010591016841F00101016000680B4D3F
:102DC00000F001000590224610212846FFF7E6F9A1
:102DD000102000900120CDE90104694628460394A3
:102DE000FFF7EEF807B030BD303802400000024077
:102DF0000C4810B50A4901604FF4E13141600021EF
:102E000081600C22C160C0E904128161C161FFF7D9
:102E1000BFFE002803D0BDE81040FEF7C9BF10BDBB
:102E2000004C0040240000200C4810B50A49016005
:102E30004FF416514160002181600C22C160C0E94D
:102E400004128161C161FFF7A3FE002803D0BDE831
:102E50001040FEF7ADBF10BD0044004068000020E8
:102E6000FEE7FEE770477047FFF7A4B970B594B06E
:102E700034216846FDF7E2FB14210DA8FDF7DEFBC7
:102E80001F480025016841F080510160006800F092
:102E9000805012901B48016841F440410160006875
:102EA000022400F4404012900120009000040190A0
:102EB0008001CDE906400F260896D820CDE9090407
:102EC0000B9468460C94FFF74DFB08B172B6FEE711
:102ED000FFF70AFA08B172B6FEE74FF4A050CDE949
:102EE0000F504FF480501190CDE90D6405210DA8CD
:102EF000FFF732FA002801D072B6FEE714B070BDB9
:102F000040380240007000400548016841F47001FB
:102F1000016003494FF0006080390860704700008D
:102F200088ED00E010B5806B0021C185C184FFF7FA
:102F3000FAFC10BD01680C3151E8002F22F49072A8
:102F400041E80023002BF5D10168143151E8002F2E
:102F500022F0010241E80023002BF5D1016B012989
:102F600009D101680C3151E8002F22F0100241E82C
:102F70000023002BF5D1202180F83E1000210163B1
:102F8000704708B590F83E10222901D0022008BDF4
:102F900082684FF480539A4201D1016921B1816A5C
:102FA0009A421BD04AB10AE00268816A5268C2F3B1
:102FB00008020A80816A891C08E0026972B102680D
:102FC000526802F07F020A70816A491C8162C18DD9
:102FD000491E0904090CC18503D019E00268526832
:102FE000F1E70168CA6822F02002CA600168CA6875
:102FF00022F48072CA6001684A6922F001024A61C3
:10300000202180F83E10016B012903D0FFF763FEF9
:10301000002008BD0021016301680C3151E8002F38
:1030200022F0100241E80023002BF5D101680A6864
:10303000D20602D50A6849680091818DFFF772FCBB
:10304000E6E7000070B5044600680169E26821F413
:103050004051114301612169A068E2690843616937
:10306000114308432168CA6849F20C639A4302433A
:10307000CA6020684169A26921F44071114341612D
:1030800031492068884202D03049884202D1FFF796
:103090000DFA01E0FFF7FAF9E2690023192164252E
:1030A0003226B2F5004F626828D0A0FB0101930FD1
:1030B0009200FDF705F90146B0FBF5F06FF018023C
:1030C000504301EB800006EB0010B0FBF5F000F080
:1030D000F002B1FBF5F002EB0012B1FBF5F06FF07E
:1030E0001803584301EB800006EB0010B0FBF5F02D
:1030F00000F00F0021681044886070BDA0FB010142
:1031000092185B41FDF7DCF80146B0FBF5F00201D7
:10311000B1FBF5F06FF01803584301EB800006EBAC
:10312000C000B0FBF5F000F0F80002EB4002B1FB8C
:10313000F5F0584301EB800006EBC000B0FBF5F062
:1031400000F00700D6E70000001001400014014025
:1031500081628285C28500210164222280F83E209E
:1031600080F83C100168CA6842F48072CA60016845
:103170004A6942F001024A610068C16841F02001D9
:10318000C160002070472DE9F041984617460E4671
:103190000446069D27E0681C25D02DB1FFF704F8F2
:1031A000A0EB0800A8421ED920680C3050E8001F90
:1031B00021F4D07140E80012002AF5D120681430C3
:1031C00050E8001F21F0010140E80012002AF5D16B
:1031D000202084F83D0084F83E00002084F83C0064
:1031E0000320BDE8F0812068006836EA000004D0C2
:1031F0000020B842CFD00020F3E70120F9E700001B
:103200000148FFF791BB000068000020FEE70907B6
:10321000090E002804DB00F1E02080F8001470475C
:1032200000F00F0000F1E02080F8141D704700004E
:1032300030B52DED048B81B0B0EE408AF0EE608A9F
:103240006A4651EC180B00F0DFF900989FED329BB5
:103250007E300090002821DC53EC192B51EC180B28
:1032600000F0B4FC1AD0002140F608004FF0000036
:10327000044651EC180B00F063FA08EE100A40F611
:10328000080004EA00014FF00000B5EEC08AF1EE3C
:1032900010FA04BF0220FDF700FA2DE00098FF2885
:1032A00030DB002108464FF0000000F4400553ECED
:1032B000192B51EC180B00F0A7FE8CBF0024012441
:1032C0000220FDF7EAF99FED168A4DB1002C0CBFE4
:1032D0004FF400004FF48000A84218BF9FED118A00
:1032E000042108464FF00000002C01BFB1EE480A4F
:1032F00001B0BDEC048B30BDB0EE480A01B0BDECAE
:10330000048B30BD51EC180B00F01AFA01B000EE3E
:10331000100ABDEC048B30BD00000000000000006E
:103320000000807FFFFF7F7F10B52DED040B86B07E
:103330009DED060B10EE100A10EE901A8DED000BAD
:10334000002818BF0120084320F00040C0F17F6032
:1033500000F1E040C00F21D19DED080B10EE101AD6
:1033600010EE900A8DED000B002918BF01210843D3
:1033700020F00040C0F17F6000F1E040C00F0DD1AF
:1033800029490798B1EB400F04BF0698002842D0A6
:103390000998400004BF089800283CD09DED080B18
:1033A00053EC102B9DED060B51EC100B00F07EFD45
:1033B000CDE902019DED020B40F2FF7110EE900A83
:1033C0008DED000B31EA105021D00798039900F0E1
:1033D000004001F00041884219D09DED080B8DEDB1
:1033E000040B9DED020B8DED000B10EE900A05997C
:1033F00061F31E0005909DED041B9DED020B51EC49
:10340000110B53EC102B00F035FECDE902019DEDC0
:10341000020B0AB010BD0120FDF73FF90AB0BDE86C
:10342000104000F06DB800000000E0FF0000000058
:1034300030B540F2FF742DED048BF0EE608A18EE8B
:10344000901A85B0B0EE408A9FED2B9B05468DED1E
:10345000008B34EA115147D053EC192B51EC180B67
:1034600000F0B4FB40D02A4651EC180B00F0A8FF46
:1034700041EC180B18EE900A8DED008B34EA1050D9
:103480001CD053EC192B51EC180B00F09FFB2BD1E7
:103490000220FDF702F900F053F810EE901A18EE32
:1034A000900A8DED020B8DED008B61F31E000390F1
:1034B0009DED020B05B0BDEC048B30BD0220FDF785
:1034C000ECF800F02DF810EE901A18EE900A8DED41
:1034D000020B8DED008B61F31E0003909DED020B3E
:1034E00005B0BDEC048B30BD05B0B0EE480AF0EE7F
:1034F000680ABDEC048B30BD000000000000000035
:103500009FED050B10B553EC102B51EC100B00F098
:1035100005FA41EC100B10BD000000000000000097
:103520009FED050B10B553EC102B51EC100B00F078
:10353000C5FB41EC100B10BD000000000000007046
:103540009FED050B10B553EC102B51EC100B00F058
:10355000B5FB41EC100B10BD000000000000001096
:1035600010B5044691ED000BFFF762FE84ED000AF2
:1035700010BD10B5044690ED000B0846FFF758FF4C
:1035800084ED000B10BD30380A2801D201207047AD
:103590000020704710B52DED048BB0EE408A18EE78
:1035A000100A00F05DFE41EC100B9FED111BFFF7C0
:1035B000BBFE9FED111A51EC100BC8EE011ABDEEC7
:1035C000E11AB8EEC18A9FED0D1B53EC112B00F0F0
:1035D000A5F941EC190B18EE100A00F041FE53EC6E
:1035E000192B00F0DFF8BDEC048B41EC100B10BD83
:1035F00000000000000059400000C8420000000028
:1036000000004E400000000010B582B01446CDE925
:1036100000010023009A2360194B21F000409842DA
:103620002ADA024328D0B0F5801FA8BF226810DA3A
:103630009FED150B53EC102B9DED000B51EC100B77
:1036400000F03CFBCDE900016FF0350221F00040B5
:1036500022600F4B6FF31E5103EB2050104420608B
:1036600041F0FF5040F0005001909DED000B00BF75
:1036700002B051EC100B10BD9DED000BF8E70000FF
:103680000000F07F00000000000000000000504338
:1036900002FCFFFFFEF796FDFFF7E8FBFFF77AFB62
:1036A000FFF7C2FBFFF7A4FB4FF47A7423460A220C
:1036B0000A490B48FFF712FB012210210948FEF7C7
:1036C0006DFDFEF797FB0549234609220A310448A0
:1036D000FFF704FBFEF79CFBFCE700000000002066
:1036E000240000200000024010B500290AD008780C
:1036F000002807D005487844FDF73AFF002801D09C
:10370000002010BD0248784410BD00008A0E000061
:10371000820E000010B500290AD00878002807D0D2
:1037200005487844FDF724FF002801D0002010BD93
:103730000248784410BD00007A0E0000720E0000AE
:1037400021F00042A2F16052B2F5801F01F0004367
:1037500028BFD2F17F6C0BD95FEA001C43EAC2029A
:1037600042EB507018BF704728BF20F0010070472F
:10377000B2F5801FBCBF184670474FEA410C1CF5DC
:10378000001F02D2084600F0E1BD70B500F040FB1A
:1037900000000089FFF7F6BF4FF00040A0F5800061
:1037A0007047000010B591EA030F48BF83F0004353
:1037B00000F17484841A71EB030C05D2121943EBE7
:1037C0000C03001B61EB0C01DFF824E14FEA1154FC
:1037D000A4EB135C1EEA430F18BF9EEA445F73D04C
:1037E00023EA0E03DCF1200E21EA045143F4801396
:1037F00032D322FA0CFE10EB0E0023FA0CFE41EB42
:103800000E01CCF1200E03FA0EFE10EB0E0051F16A
:103810000001B1F5801FCCF1200E32D201EB045132
:1038200012FA0EF2BDE8104058BF7047401C38BF76
:103830005FEA420218BF7047002814BF20F0010061
:1038400041F100014FEA410313F5001F38BF7047F3
:10385000A1F1C04100F0D2BB012A43EB0302ACF15D
:10386000200CDCF11F0E32BF4FF0000E23FA0CF3D8
:1038700010EB030041EB0451B4EB115FD0D0A1EB8E
:10388000045101F5801149085FEA300001EB045151
:103890000ED350F1000038BF12FA0EFE08D1BDE879
:1038A0001040C9E7401C38BF5FEA4202CAD1C3E7F3
:1038B000BDE810404FEA410313F5001F38BF7047C1
:1038C000A1F1C04100F09ABB9EEA445F08D011EA22
:1038D0005E0FBDE8104004BF01F0004100207047BA
:1038E000BDE8104070B500F093FA00BF64FBBE3E27
:1038F0000000E0FF02494FF0000000F02FBD00BFC4
:103900000000F87F491058BFC1F140415B1058BF1B
:10391000C3F140438B42EFF3008070472DE9C04173
:1039200030B4DFF8A0C23CEA111418BF3CEA13140B
:1039300000F0EC8081EA03051CEA111444EAD57416
:1039400018BF1CEA131500F0C780A4EB05044FF064
:10395000004545EAC12145EAC32341EA505143EA03
:10396000525304F17F74994204F500344FEAC020A9
:103970004FEAC22208BF904200F09C804FEA1365D4
:103980000FF24016765D4FEA134506FB05F7C7F1C7
:10399000807706FB07F74FEAD737A7FB0368764225
:1039A000C8F58038A7FB06CE38BFA8F1010807FB91
:1039B00008E64FF0000EA6FB028CE6FB03CEDCF11E
:1039C000000CCEF1004E38BFAEF1010EA6FB0C5834
:1039D0004FF000074FF00005E6FB0E87A1FB08C67D
:1039E000A0FB07CE16EB0E0645F10005E1FB0765CF
:1039F00015F1E04E7EBFA4F580345FEA46066D41C6
:103A000016F1800745F100054FEA17274FEA0666D1
:103A100047EA0567A6F1DE46B6F1805F4FEA152555
:103A20001FD9384624F0010C05EBC471BCF1FE6FC0
:103A300001EB0C1102D8F0BCBDE8008124425CBF50
:103A400001F5801E9EEAC47F02D4F0BCBDE800816F
:103A5000244238D4F0BCA1F1C041BDE8004100F0DF
:103A6000CDBA4FEAD22242EA43524FEAD323A7FB10
:103A700002864FEAD02040EA415007FB03661EEA67
:103A80000E0F4FEAD12105FB026658BFA6EB005688
:103A9000B6EB00564FEA520E4EEAC37E18EB0E0EFE
:103AA00056EB530EBDD518EB02085E417F1C55F155
:103AB0000005B6E74FF480154FF000074FF0000601
:103AC0004FF00008ADE7F0BC4FF0000001F1C0413D
:103AD00001F00041BDE8008111EA0C1F0CEA13154A
:103AE00000D00CE013EA0C1F00F025804FF000001E
:103AF000F0BC81EA030101F00041BDE80081F0BCA7
:103B0000BDE8004181EA030100F078BAF0BCBDE8ED
:103B1000004170B500F07CF9097EFC3E00F007B86A
:103B200081EA03014FF0000001F00041704781EA93
:103B3000030100F063BAF0BCBDE800414FF00000A3
:103B400021497047FFFDFBF9F7F5F4F2F0EEEDEBDC
:103B5000E9E8E6E4E3E1E0DEDDDBDAD8D7D5D4D38B
:103B6000D1D0CFCDCCCBCAC8C7C6C5C4C2C1C0BFD7
:103B7000BEBDBCBBBAB9B8B7B6B5B4B3B2B1B0AFDD
:103B8000AEADACABAAA9A8A8A7A6A5A4A3A3A2A1C1
:103B9000A09F9F9E9D9C9C9B9A999998979796957C
:103BA00095949393929191908F8F8E8E8D8C8C8B18
:103BB0008B8A8989888887878685858484838382A0
:103BC000828181800000FF070000F87F51EA030C2A
:103BD00017D41CF5801F58BFBCF5801F00F106806C
:103BE000994218BF704708BF9042704707D711F538
:103BF000801F58BF13F5801F19D49942704789421E
:103C000070471CF5801F08D5BCF5801FF7D58B4287
:103C100018BF704708BF824270474FF4001C1CEB6E
:103C2000410F38BF1CEB430F01D28B42704770B578
:103C300000F0EEF8922449004FF000514FF080530D
:103C4000FFF760BE51EA030C17D41CF5801F58BF64
:103C5000BCF5801F00F10680994218BF704708BF6D
:103C60009042704707D711F5801F58BF13F5801F8A
:103C700019D499427047894270471CF5801F08D5B6
:103C8000BCF5801FF7D58B4218BF704708BF824232
:103C900070474FF4001C1CEB410F38BF1CEB430F67
:103CA00001D28B42704770B500F0B2F892244900FF
:103CB0004FF000514FF08053FFF724BEDFF848C1AA
:103CC00070B51CEA111E1EBF1CEA13159EEA0C0FEC
:103CD00095EA0C0F00F06F8081EA030423EA4C138D
:103CE0004EEAD47E21EA4C1141F4801143F4801352
:103CF000AE44A1FB024CA0FB0365AEF17F7E3619FA
:103D000055EB0C05A1FB034C4CF10003A0FB021C7E
:103D100016EB0C06654153F10003094218BF46F04B
:103D2000010613F4007F0BD14FEA03314FEA05304F
:103D3000340341EA155140EA16506FF003020AE0DD
:103D40004FEAC3214FEAC520F40241EA555140EA47
:103D500056506FF0020202EB2E4201EB025585EA4B
:103D6000CE710AD05FEA440C18BF24F0004450F131
:103D7000000041F1000120EAD47040F2FE7C62456F
:103D800000D270BDA84214BF4FF080444FF04044B1
:103D9000002E08BF0024BEF1806FA8BFA1F1C04172
:103DA000BDE8704080F22A814FF0000001F1C0416F
:103DB00001F0004170479EEA0C0F0CEA131518BF82
:103DC00095EA0C0F06D04FF0000081EA030E0EF0CA
:103DD000004170BD00F01CF88900013E00F007B8FA
:103DE00000F009B84FEA430C5FEA5C5C08D081EA56
:103DF000030100F003B94FEA410C5FEA5C5CF6D1C5
:103E00004FF00000014970470000FF070000F87FF5
:103E10000EF1020E2EF0030E5EF8046B364205D44E
:103E2000012A43EB030515F5001F12D8012841EBC9
:103E3000010C1CF5001F0CD80ED14FEAD17C15F5F2
:103E4000001F0CEB4C0C0CF1020C08BF4CEBD37CAC
:103E500004E04FF0080C01E04FEAD37C0CEB4C057A
:103E600026FA05F606F00706B6F1040C06D20EEBAC
:103E7000860CBDE870404CF0010C6047DFE80CF0A8
:103E8000090B02024FF000414FF00000A1F50021A4
:103E900070BD19461046012851EB010418BFD4F536
:103EA000001484BF002001F0004170BDDFF844C160
:103EB00070B53CEA111418BF3CEA131500F08F806E
:103EC00011F1004F1CEA13150CEA111468BF45F0FC
:103ED000050518BF11EA0C1F00F079802E4621EA73
:103EE0004C1123EA4C1341F4801143F48013A5F5DF
:103EF0008035AC423DDD801A9941A4F5803609D564
:103F00004042C1F1000134BFB1F10101B1F1000142
:103F100085F0010511F4F01F08D011F4801FE8D1DD
:103F2000400041EB0101A4F58034F6E721F00041A7
:103F3000B1FA81F6202E04BFB0FA80FE0EF1200601
:103F4000A6F10B06B6F1200EA4EB06440CD2C6F186
:103F5000200E01FA06F120FA0EF641EA0601CEF132
:103F6000200600FA06F003E000FA0EF14FF0000020
:103F7000BFE750EA410E23D04FEA244EBEEB254F57
:103F80000FDB994208BF904204D00AD3520043EBA2
:103F90000303B0E74FEA1646B6EB144F08BF85F0AF
:103FA0000105B4F5803401EB041181EAC57100DB31
:103FB00070BD01F1C0414FF0000001F0004170BD43
:103FC0004FEA45714FF0000001F0004170BD1CEA5E
:103FD000131F09D04FF0000001F0004170BDFFF742
:103FE00017FF00BFEDFFFF3EBDE870404FF000003F
:103FF000014970470000FF070000F87F0808A0F59E
:1040000000114FEA3101704753EA010C17D41CF537
:10401000801F58BFBCF5801F00F106808B4218BF7F
:10402000704708BF8242704707D713F5801F58BFFB
:1040300011F5801F19D48B4270479B4270471CF5C5
:10404000801F08D5BCF5801FF7D5994218BF70476F
:1040500008BF904270474FF4001C1CEB430F38BF61
:104060001CEB410F01D2994270470FB40CBC03BC4A
:10407000FFF719BE91EA030F10B581F000413FF53B
:1040800099AB83F0004300F009B8000010B591EA45
:10409000030F48BF83F000433FF58CAB841A71EBEC
:1040A000030C07D212198CF0004C43EB0C03001BDD
:1040B00061EB0C01DFF8A4E14FEA1154A4EB135CAF
:1040C0001EEA430F18BF9EEA445F00F0B08023EA67
:1040D0006E03524221EA0451C3EB6E0338BF5B1EEC
:1040E000DCF1200E25D322FA0CFE10EB0E0043FA71
:1040F0000CFE41EB0E01CCF1200E03FA0EFE10EB8C
:104100000E0051F10001CCF1200E29D412FA0EF26A
:1041100001EB0451BDE8104058BF7047401C1CBF64
:10412000B2F1004F704700280CBF491C20F001007D
:10413000704712EB020E43EB030218BF4FF0010E63
:104140004EEA4202ACF1200CDCF11E0E54D943FAC7
:104150000CFE10EB0E0051F1FF31CCF11E0ED5D547
:104160000EF1010E12FA0EFE404141EB010101EB8E
:10417000445C5FEA5C5C10D910EBDE7001EB04512B
:1041800038BFBEF1004FBDE8104018BF704700288F
:104190000CBF491C20F00100704730D24FEAD42CEC
:1041A00011F5001124F400641BD0B1FA81F20B3A2E
:1041B000A41AA41ED2F12003914030FA03F319434C
:1041C000904001EBCC71002C01EB0451BDE8104094
:1041D000A8BF704701F1C0414FF0000001F000415D
:1041E0007047B0FA80F310FA03F100D110BDE41A61
:1041F000173C4805C90AE4E701EB045110BD49101A
:1042000001EB0451BDE810404FEA300002E04FF0EE
:10421000000170474A0008BF0042F8D0B2F5001F05
:1042200028BF704701F000414FF0000070479EEA40
:10423000445F07D011EA5E0FBDE8104004BF0021C3
:1042400000207047BDE8104070B5FFF7E1FD00BFEA
:1042500040DFF63E83F00041104670470000E0FF6B
:1042600043004FEAD30C4FEA3C0C43401FBF4007CA
:104270000CF1605113F0FE4F70471CF0006F03D13A
:1042800000200CF0004170470CF0004343EA5070EE
:1042900010B540EACC0000F00EF800BF000000921C
:1042A0004FEA0001FFF7AABE4FF000414FF00000B7
:1042B000A1F5002170470EF1020E2EF0030E5EF8FC
:1042C000044B244204D44FEA4102B2F17F4F11D88B
:1042D0004FEA4003B3F17F4F0CD80ED14FEAD07CA8
:1042E000B2F17F4F0CEB4C0C0CF1020C08BF4CEB05
:1042F000D17C04E04FF0080C01E04FEAD17C0CEBDC
:104300004C0324FA03F404F00704B4F1040C06D2BD
:104310000EEB840CBDE810404CF0010C6047DFE868
:104320000CF0070802024FF00040A0F5800010BD1D
:104330000846420018BFD2F1807288BF00F00040EA
:1043400010BD4FF04070E1EE100A7047FF2141EAC6
:10435000D050C00570474FF0000070470CF00F03BD
:10436000092B08BF082000F05F800A2B0BD0082B18
:1043700018BF704708BF1CF0400F0AD04FF0000074
:104380004FF0000170471CF0400F18BF4FF0004085
:1043900070471CF0100F08D020F0704300F07F42EF
:1043A00042EAD3014FEA4370704700F0604021F0C9
:1043B0007F4242EA000201F07F4040EA727070479B
:1043C0004FF0FF0C4CF4E06C1CEA11531CBF9CEA4C
:1043D000030C9445C2BFDA4201EB02517047002B37
:1043E0000DD0BCF1000F0FD0002A01F00041A4BF96
:1043F00041F0E04141F07F614FF00000704701F073
:1044000000414FF00000704750EA01334FF09B0C21
:1044100018BF4CF0806C7FF46DAA7047FCF778BA37
:10442000FCF772BEFDF700B81CF4801F11D01CF41D
:10443000E02F03D06FEACC31490070474FF0405075
:10444000EFF3008222F0704242EA000282F3008819
:1044500070474FF0000070470000000000000000AF
:10446000010203040607080900000000010203041A
:1044700002400000000000A0000000000540000015
:10448000000000C8000000000C4000000000409C3C
:1044900000000000194000000020BCBE0000000029
:1044A00034400000BFC91B8E00000004B54000006E
:1044B000504BCFD06607E2CF010000006C410000F6
:1044C0003E8251AADFEEA73401000000D94200006D
:1044D000DCB5A0E23A301F97FFFFFFFFB4450000B4
:1044E000FD25A0C8E9A3C14FFFFFFFFFFF3F00006C
:1044F0000000008000000000FF3F0000000000807E
:10450000000000002447504747412C25326868646A
:10451000253268686425326868642E253368642C07
:1045200025662C25632C25662C25632C256868645C
:104530002C256868642C25662C25662C25632C2583
:1045400068642C25732C2A2532730D0A00000000A4
:10455000AC46000800000020240000000002000813
:10456000D0460008240000203C0900001C0200087E
:10457000000000000000F07FFFFFFFFFFFFFEF7F64
:104580001C00000043000000F8FFFFFF0C000000CB
:104590000E0000000F0000002E00000010010000BF
:1045A00043000000F8FFFFFF004040404040404013
:1045B00040404141414141404040404040404040F6
:1045C000404040404040404040050202020202029A
:1045D00002020202020202020220202020202020E9
:1045E00020202002020202020202909090909090FD
:1045F00010101010101010101010101010101010BB
:10460000101010100202020202028888888888882E
:10461000080808080808080808080808080808081A
:104620000808080802020202400000000000000022
:10463000000000000000000000000000000000007A
:10464000000000000000000000000000000000006A
:10465000000000000000000000000000000000005A
:10466000000000000000000000000000000000004A
:10467000000000000000000000000000000000003A
:10468000000000000000000000000000000000002A
:10469000000000000000000000000000000000001A
:1046A000000000000000000000000000426F6F7476
:1046B000696E670D0A00426F6F7465640D0A000031
:1046C0000100000010000000000000000024F400C1
:04000005080001C529
:00000001FF
